{
  "address": "0x68095A73455973c30D7ef44413441C1Ef47B8Dd9",
  "abi": [
    {
      "inputs": [
        {
          "internalType": "address",
          "name": "_inputToken",
          "type": "address"
        },
        {
          "internalType": "address",
          "name": "_orchestrator",
          "type": "address"
        },
        {
          "internalType": "address",
          "name": "_spokePool",
          "type": "address"
        }
      ],
      "stateMutability": "nonpayable",
      "type": "constructor"
    },
    {
      "inputs": [
        {
          "internalType": "uint32",
          "name": "fillDeadline",
          "type": "uint32"
        }
      ],
      "name": "FillDeadlineOutOfRange",
      "type": "error"
    },
    {
      "inputs": [
        {
          "internalType": "uint256",
          "name": "destinationChainId",
          "type": "uint256"
        }
      ],
      "name": "InvalidDestinationChainId",
      "type": "error"
    },
    {
      "inputs": [
        {
          "internalType": "address",
          "name": "outputToken",
          "type": "address"
        }
      ],
      "name": "InvalidOutputToken",
      "type": "error"
    },
    {
      "inputs": [
        {
          "internalType": "address",
          "name": "recipient",
          "type": "address"
        }
      ],
      "name": "InvalidRecipient",
      "type": "error"
    },
    {
      "inputs": [
        {
          "internalType": "address",
          "name": "to",
          "type": "address"
        },
        {
          "internalType": "uint256",
          "name": "amount",
          "type": "uint256"
        }
      ],
      "name": "NativeTransferFailed",
      "type": "error"
    },
    {
      "inputs": [
        {
          "internalType": "uint256",
          "name": "outputAmount",
          "type": "uint256"
        },
        {
          "internalType": "uint256",
          "name": "minimum",
          "type": "uint256"
        }
      ],
      "name": "OutputBelowMinimum",
      "type": "error"
    },
    {
      "inputs": [
        {
          "internalType": "uint32",
          "name": "quoteTimestamp",
          "type": "uint32"
        }
      ],
      "name": "QuoteTimestampOutOfRange",
      "type": "error"
    },
    {
      "inputs": [
        {
          "internalType": "address",
          "name": "caller",
          "type": "address"
        }
      ],
      "name": "UnauthorizedCaller",
      "type": "error"
    },
    {
      "inputs": [],
      "name": "ZeroAddress",
      "type": "error"
    },
    {
      "anonymous": false,
      "inputs": [
        {
          "indexed": true,
          "internalType": "bytes32",
          "name": "intentHash",
          "type": "bytes32"
        },
        {
          "indexed": false,
          "internalType": "uint256",
          "name": "destinationChainId",
          "type": "uint256"
        },
        {
          "indexed": false,
          "internalType": "address",
          "name": "outputToken",
          "type": "address"
        },
        {
          "indexed": false,
          "internalType": "address",
          "name": "recipient",
          "type": "address"
        },
        {
          "indexed": false,
          "internalType": "uint256",
          "name": "inputAmount",
          "type": "uint256"
        },
        {
          "indexed": false,
          "internalType": "uint256",
          "name": "outputAmount",
          "type": "uint256"
        },
        {
          "indexed": false,
          "internalType": "uint32",
          "name": "quoteTimestamp",
          "type": "uint32"
        },
        {
          "indexed": false,
          "internalType": "uint32",
          "name": "fillDeadline",
          "type": "uint32"
        }
      ],
      "name": "AcrossBridgeInitiated",
      "type": "event"
    },
    {
      "anonymous": false,
      "inputs": [
        {
          "indexed": true,
          "internalType": "address",
          "name": "previousOwner",
          "type": "address"
        },
        {
          "indexed": true,
          "internalType": "address",
          "name": "newOwner",
          "type": "address"
        }
      ],
      "name": "OwnershipTransferred",
      "type": "event"
    },
    {
      "anonymous": false,
      "inputs": [
        {
          "indexed": true,
          "internalType": "address",
          "name": "token",
          "type": "address"
        },
        {
          "indexed": true,
          "internalType": "address",
          "name": "to",
          "type": "address"
        },
        {
          "indexed": false,
          "internalType": "uint256",
          "name": "amount",
          "type": "uint256"
        }
      ],
      "name": "RescueERC20",
      "type": "event"
    },
    {
      "anonymous": false,
      "inputs": [
        {
          "indexed": true,
          "internalType": "address",
          "name": "to",
          "type": "address"
        },
        {
          "indexed": false,
          "internalType": "uint256",
          "name": "amount",
          "type": "uint256"
        }
      ],
      "name": "RescueNative",
      "type": "event"
    },
    {
      "inputs": [
        {
          "components": [
            {
              "internalType": "address",
              "name": "owner",
              "type": "address"
            },
            {
              "internalType": "address",
              "name": "to",
              "type": "address"
            },
            {
              "internalType": "address",
              "name": "escrow",
              "type": "address"
            },
            {
              "internalType": "uint256",
              "name": "depositId",
              "type": "uint256"
            },
            {
              "internalType": "uint256",
              "name": "amount",
              "type": "uint256"
            },
            {
              "internalType": "uint256",
              "name": "timestamp",
              "type": "uint256"
            },
            {
              "internalType": "bytes32",
              "name": "paymentMethod",
              "type": "bytes32"
            },
            {
              "internalType": "bytes32",
              "name": "fiatCurrency",
              "type": "bytes32"
            },
            {
              "internalType": "uint256",
              "name": "conversionRate",
              "type": "uint256"
            },
            {
              "internalType": "bytes32",
              "name": "payeeId",
              "type": "bytes32"
            },
            {
              "internalType": "address",
              "name": "referrer",
              "type": "address"
            },
            {
              "internalType": "uint256",
              "name": "referrerFee",
              "type": "uint256"
            },
            {
              "internalType": "contract IPostIntentHook",
              "name": "postIntentHook",
              "type": "address"
            },
            {
              "internalType": "bytes",
              "name": "data",
              "type": "bytes"
            }
          ],
          "internalType": "struct IOrchestrator.Intent",
          "name": "_intent",
          "type": "tuple"
        },
        {
          "internalType": "uint256",
          "name": "_amountNetFees",
          "type": "uint256"
        },
        {
          "internalType": "bytes",
          "name": "_fulfillIntentData",
          "type": "bytes"
        }
      ],
      "name": "execute",
      "outputs": [],
      "stateMutability": "nonpayable",
      "type": "function"
    },
    {
      "inputs": [],
      "name": "inputToken",
      "outputs": [
        {
          "internalType": "contract IERC20",
          "name": "",
          "type": "address"
        }
      ],
      "stateMutability": "view",
      "type": "function"
    },
    {
      "inputs": [],
      "name": "orchestrator",
      "outputs": [
        {
          "internalType": "address",
          "name": "",
          "type": "address"
        }
      ],
      "stateMutability": "view",
      "type": "function"
    },
    {
      "inputs": [],
      "name": "owner",
      "outputs": [
        {
          "internalType": "address",
          "name": "",
          "type": "address"
        }
      ],
      "stateMutability": "view",
      "type": "function"
    },
    {
      "inputs": [],
      "name": "renounceOwnership",
      "outputs": [],
      "stateMutability": "nonpayable",
      "type": "function"
    },
    {
      "inputs": [
        {
          "internalType": "address",
          "name": "_token",
          "type": "address"
        },
        {
          "internalType": "address",
          "name": "_to",
          "type": "address"
        },
        {
          "internalType": "uint256",
          "name": "_amount",
          "type": "uint256"
        }
      ],
      "name": "rescueERC20",
      "outputs": [],
      "stateMutability": "nonpayable",
      "type": "function"
    },
    {
      "inputs": [
        {
          "internalType": "address payable",
          "name": "_to",
          "type": "address"
        },
        {
          "internalType": "uint256",
          "name": "_amount",
          "type": "uint256"
        }
      ],
      "name": "rescueNative",
      "outputs": [],
      "stateMutability": "nonpayable",
      "type": "function"
    },
    {
      "inputs": [],
      "name": "spokePool",
      "outputs": [
        {
          "internalType": "contract IAcrossSpokePool",
          "name": "",
          "type": "address"
        }
      ],
      "stateMutability": "view",
      "type": "function"
    },
    {
      "inputs": [
        {
          "internalType": "address",
          "name": "newOwner",
          "type": "address"
        }
      ],
      "name": "transferOwnership",
      "outputs": [],
      "stateMutability": "nonpayable",
      "type": "function"
    },
    {
      "stateMutability": "payable",
      "type": "receive"
    }
  ],
  "transactionHash": "0xce4e4ecc155e76ad34d6eac5525badcf764686157388feaaa4c69673eba9a160",
  "args": [
    "0x833589fCD6eDb6E08f4c7C32D4f71b54bdA02913",
    "0xF9b9CD27Deea496B960b3cb5221b514705fCaF5e",
    "0x09aea4b2242abC8bb4BB78D537A67a245A7bEC64"
  ],
  "numDeployments": 1,
  "solcInputHash": "c348513c27771313e548e60b0152f345",
  "bytecode": "0x60e034620001a657601f620014a938819003918201601f19168301916001600160401b03831184841017620001ab57808492606094604052833981010312620001a6576200004d81620001c1565b906200006a60406200006260208401620001c1565b9201620001c1565b60008054336001600160a01b03198216811783556040516001600160a01b0396949594909387939192918416907f8be0079c531659141344cd1fd0a4f28419497f9722a3daafe3b4186f6b6457e09080a31690811580156200019b575b801562000190575b62000181575060805260a0521660c0526040516112d29081620001d78239608051818181610632015281816106850152818161071f015281816107950152818161088c01528181610a090152610ee0015260a051818181610337015281816105d50152610c64015260c05181818161047f015281816104ce0152818161051d0152818161065b015281816106cb015281816107450152818161080a01528181610862015281816109d70152610d820152f35b63d92e233d60e01b8152600490fd5b5084841615620000cf565b5084831615620000c7565b600080fd5b634e487b7160e01b600052604160045260246000fd5b51906001600160a01b0382168203620001a65756fe608080604052600436101561001d575b50361561001b57600080fd5b005b600090813560e01c90816301b60ef214610ecc575080631291f79d14610e32578063715018a614610dd85780638da5cb5b14610db1578063afdac3d614610d6c578063b2118a8d14610c93578063b74795d914610c4e578063e49803d0146101565763f2fde38b0361000f5734610153576020366003190112610153576100a2610f0f565b6100aa610fae565b6001600160a01b039081169081156100ff57600054826bffffffffffffffffffffffff60a01b821617600055167f8be0079c531659141344cd1fd0a4f28419497f9722a3daafe3b4186f6b6457e0600080a380f35b60405162461bcd60e51b815260206004820152602660248201527f4f776e61626c653a206e6577206f776e657220697320746865207a65726f206160448201526564647265737360d01b6064820152608490fd5b80fd5b503461015357600319606036820112610c1a5767ffffffffffffffff60043511610c1a576101c0809160043536030112610c1a5760405190810181811067ffffffffffffffff821117610c3a576040526101b4600435600401610f2a565b81526101c4602460043501610f2a565b60208201526101d7604460043501610f2a565b6040820152600435606481013560608301526084810135608083015260a481013560a083015260c481013560c083015260e481013560e08301526101048101356101008301526101248101356101208301526102369061014401610f2a565b61014082015260043561016481013561016083015261018401356001600160a01b0381169003610c1a576004356101848101356101808301526101a4013567ffffffffffffffff8111610c36573660238260043501011215610c3657826102a36004838135010135610f92565b916102b16040519384610f70565b6004803582019081013580855236910160240111610c1a57602090600490813581018083013590602401868501378135010135830101526101a082015267ffffffffffffffff60443511610c1a57366023604435011215610c1a5767ffffffffffffffff6044356004013511610c1a5736602460443560040135604435010111610c1a577f00000000000000000000000000000000000000000000000000000000000000006001600160a01b03163303610c1e576101a00151608081805181010312610c1a5760806040519161038683610f3e565b6020810151835261039960408201611006565b60208401526103aa60608201611006565b6040840152015160608201526080604435600481013581010312610c1a576040516103d481610f3e565b60246044350135815260448035013560208201526103f660646044350161101a565b604082015261040960846044350161101a565b606082015281518015610c02575060408201516001600160a01b03168015610bea575060208201516001600160a01b03168015610bd2575060208101516060830151808210610bb4575050604081810151606083015191516329cb924d60e01b815263ffffffff928316929091166020826004817f00000000000000000000000000000000000000000000000000000000000000006001600160a01b03165afa918215610ba9578692610b71575b50604051630afedb9760e31b8152906020826004817f00000000000000000000000000000000000000000000000000000000000000006001600160a01b03165afa918215610b66578792610b2e575b5060405163079bd2c760e01b8152916020836004817f00000000000000000000000000000000000000000000000000000000000000006001600160a01b03165afa928315610b23578893610aeb575b506105608185611237565b8211908115610ad8575b50610ac05750818310918215610aad575b5050610a95575060018060a01b0360408301511660018060a01b03602084015116835160208401519063ffffffff6040860151169163ffffffff606087015116936040516323b872dd60e01b602082015260018060a01b037f00000000000000000000000000000000000000000000000000000000000000001660248201523060448201526024356064820152606481528060a081011067ffffffffffffffff60a083011117610a81578060a061065692016040527f000000000000000000000000000000000000000000000000000000000000000061102b565b6106a97f00000000000000000000000000000000000000000000000000000000000000006001600160a01b03167f000000000000000000000000000000000000000000000000000000000000000061125a565b6024351580156109b9575b156109555760405163095ea7b360e01b60208201527f00000000000000000000000000000000000000000000000000000000000000006001600160a01b03166024808301919091523560448201526107439061071d81606481015b03601f198101835282610f70565b7f000000000000000000000000000000000000000000000000000000000000000061102b565b7f00000000000000000000000000000000000000000000000000000000000000006001600160a01b03163b156109515760405195633dc9c91960e11b8752306004880152602487015260018060a01b037f00000000000000000000000000000000000000000000000000000000000000001660448701526064860152602435608486015260a485015260c48401528560e4840152610104830152610124820152836101448201526101806101648201528361018482015283816101a4818360018060a01b037f0000000000000000000000000000000000000000000000000000000000000000165af1801561094657610915575b507f43bf7cd7f8ff79cbfbac6ce407edc97fb57e5ac5f218b385b96e6de78b999ce29060e0906108b07f00000000000000000000000000000000000000000000000000000000000000006001600160a01b03167f000000000000000000000000000000000000000000000000000000000000000061125a565b80519380519160018060a01b0360208301511691604060018060a01b039101511660208201519063ffffffff6060816040860151169401511693604051958652602086015260408501526024356060850152608084015260a083015260c0820152a280f35b67ffffffffffffffff8194929411610932576040529160e0610837565b634e487b7160e01b82526041600452602482fd5b6040513d86823e3d90fd5b8880fd5b60405162461bcd60e51b815260206004820152603660248201527f5361666545524332303a20617070726f76652066726f6d206e6f6e2d7a65726f60448201527520746f206e6f6e2d7a65726f20616c6c6f77616e636560501b6064820152608490fd5b50604051636eb1769f60e11b81523060048201526001600160a01b037f000000000000000000000000000000000000000000000000000000000000000081166024830152602090829060449082907f0000000000000000000000000000000000000000000000000000000000000000165afa908115610a76578a91610a40575b50156106b4565b90506020813d602011610a6e575b81610a5b60209383610f70565b81010312610a6a575138610a39565b8980fd5b3d9150610a4e565b6040513d8c823e3d90fd5b634e487b7160e01b8a52604160045260248afd5b6024906040519063109b158360e01b82526004820152fd5b610ab79250611237565b8111388061057b565b6024906040519063135829f760e31b82526004820152fd5b610ae3915082611237565b83113861056a565b9092506020813d602011610b1b575b81610b0760209383610f70565b81010312610b1757519138610555565b8780fd5b3d9150610afa565b6040513d8a823e3d90fd5b9091506020813d602011610b5e575b81610b4a60209383610f70565b81010312610b5a57519038610506565b8680fd5b3d9150610b3d565b6040513d89823e3d90fd5b9091506020813d602011610ba1575b81610b8d60209383610f70565b81010312610b9d575190386104b7565b8580fd5b3d9150610b80565b6040513d88823e3d90fd5b604492506040519163f5426ef960e01b835260048301526024820152fd5b602490604051906381879ccd60e01b82526004820152fd5b60249060405190630bc2c5df60e11b82526004820152fd5b602490604051906330ddda8b60e21b82526004820152fd5b5080fd5b60405163d86ad9cf60e01b8152336004820152602490fd5b8280fd5b634e487b7160e01b83526041600452602483fd5b50346101535780600319360112610153576040517f00000000000000000000000000000000000000000000000000000000000000006001600160a01b03168152602090f35b503461015357606036600319011261015357610cad610f0f565b6024356001600160a01b038181169290838303610d685760443591610cd0610fae565b169182158015610d60575b610d4e5760405163a9059cbb60e01b6020828101919091526001600160a01b039092166024820152604481018390527f9b793652de97f04c5168920587bad4b1c6345295a8f5ad31c59ff946a26f91d29290610d4490610d3e816064810161070f565b8561102b565b604051908152a380f35b60405163d92e233d60e01b8152600490fd5b508315610cdb565b8480fd5b50346101535780600319360112610153576040517f00000000000000000000000000000000000000000000000000000000000000006001600160a01b03168152602090f35b5034610153578060031936011261015357546040516001600160a01b039091168152602090f35b5034610153578060031936011261015357610df1610fae565b80546001600160a01b03198116825581906001600160a01b03167f8be0079c531659141344cd1fd0a4f28419497f9722a3daafe3b4186f6b6457e08280a380f35b5034610153576040366003190112610153576004356001600160a01b03811690819003610c1a57602435610e64610fae565b8115610d4e578280808084865af1610e7a611133565b5015610eae5760207ffdf9af81fab92b918baa794ad0e9ba32c6869f6a87ce9463f2ef50e1bf7c27e591604051908152a280f35b604492506040519163296c17bb60e21b835260048301526024820152fd5b905034610c1a5781600319360112610c1a577f00000000000000000000000000000000000000000000000000000000000000006001600160a01b03168152602090f35b600435906001600160a01b0382168203610f2557565b600080fd5b35906001600160a01b0382168203610f2557565b6080810190811067ffffffffffffffff821117610f5a57604052565b634e487b7160e01b600052604160045260246000fd5b90601f8019910116810190811067ffffffffffffffff821117610f5a57604052565b67ffffffffffffffff8111610f5a57601f01601f191660200190565b6000546001600160a01b03163303610fc257565b606460405162461bcd60e51b815260206004820152602060248201527f4f776e61626c653a2063616c6c6572206973206e6f7420746865206f776e65726044820152fd5b51906001600160a01b0382168203610f2557565b359063ffffffff82168203610f2557565b60018060a01b031690604051604081019080821067ffffffffffffffff831117610f5a5761109d916040526020938482527f5361666545524332303a206c6f772d6c6576656c2063616c6c206661696c6564858301526000808587829751910182855af1611097611133565b91611163565b80519182159184831561110f575b5050509050156110b85750565b6084906040519062461bcd60e51b82526004820152602a60248201527f5361666545524332303a204552433230206f7065726174696f6e20646964206e6044820152691bdd081cdd58d8d9595960b21b6064820152fd5b919381809450010312610c1a578201519081151582036101535750803880846110ab565b3d1561115e573d9061114482610f92565b916111526040519384610f70565b82523d6000602084013e565b606090565b919290156111c55750815115611177575090565b3b156111805790565b60405162461bcd60e51b815260206004820152601d60248201527f416464726573733a2063616c6c20746f206e6f6e2d636f6e74726163740000006044820152606490fd5b8251909150156111d85750805190602001fd5b6040519062461bcd60e51b82528160208060048301528251908160248401526000935b82851061121e575050604492506000838284010152601f80199101168101030190fd5b84810182015186860160440152938101938593506111fb565b9190820180921161124457565b634e487b7160e01b600052601160045260246000fd5b60405163095ea7b360e01b60208201526001600160a01b0390921660248301526000604480840191909152825261129a919061129582610f3e565b61102b565b56fea26469706673582212205b947fb56673b664dd757511a47a0aa8c5fd949dea4426a359b9e3e4e8f6e9c864736f6c63430008120033",
  "devdoc": {
    "kind": "dev",
    "methods": {
      "constructor": {
        "params": {
          "_inputToken": "USDC token address on this chain",
          "_orchestrator": "Orchestrator that invokes this hook",
          "_spokePool": "Across SpokePool address on this chain"
        }
      },
      "execute((address,address,address,uint256,uint256,uint256,bytes32,bytes32,uint256,bytes32,address,uint256,address,bytes),uint256,bytes)": {
        "details": "Destination params are taken from the commitment; fulfill data only supplies JIT fields.",
        "params": {
          "_amountNetFees": "Net USDC amount after fees",
          "_fulfillIntentData": "ABI-encoded AcrossFulfillData",
          "_intent": "Intent data passed by Orchestrator (includes commitment in intent.data)"
        }
      },
      "owner()": {
        "details": "Returns the address of the current owner."
      },
      "renounceOwnership()": {
        "details": "Leaves the contract without owner. It will not be possible to call `onlyOwner` functions. Can only be called by the current owner. NOTE: Renouncing ownership will leave the contract without an owner, thereby disabling any functionality that is only available to the owner."
      },
      "rescueERC20(address,address,uint256)": {
        "params": {
          "_amount": "Amount to rescue",
          "_to": "Recipient address for rescued tokens",
          "_token": "Token address to rescue"
        }
      },
      "rescueNative(address,uint256)": {
        "params": {
          "_amount": "Amount to rescue",
          "_to": "Recipient address for rescued native tokens"
        }
      },
      "transferOwnership(address)": {
        "details": "Transfers ownership of the contract to a new account (`newOwner`). Can only be called by the current owner."
      }
    },
    "title": "AcrossBridgeHook",
    "version": 1
  },
  "userdoc": {
    "kind": "user",
    "methods": {
      "constructor": {
        "notice": "Creates a new AcrossBridgeHook instance."
      },
      "execute((address,address,address,uint256,uint256,uint256,bytes32,bytes32,uint256,bytes32,address,uint256,address,bytes),uint256,bytes)": {
        "notice": "Executes the hook by depositing USDC into Across SpokePool."
      },
      "rescueERC20(address,address,uint256)": {
        "notice": "Rescues ERC20 tokens sent to this contract."
      },
      "rescueNative(address,uint256)": {
        "notice": "Rescues native tokens sent to this contract."
      }
    },
    "notice": "Post-intent hook that deposits USDC into Across SpokePool using committed destination params.",
    "version": 1
  },
  "storageLayout": {
    "storage": [
      {
        "astId": 7,
        "contract": "contracts/hooks/AcrossBridgeHook.sol:AcrossBridgeHook",
        "label": "_owner",
        "offset": 0,
        "slot": "0",
        "type": "t_address"
      }
    ],
    "types": {
      "t_address": {
        "encoding": "inplace",
        "label": "address",
        "numberOfBytes": "20"
      }
    }
  }
}